{
  "_format": "hh-sol-artifact-1",
  "contractName": "AgentNFT",
  "sourceName": "contracts/AgentNFT.sol",
  "abi": [
    {
      "inputs": [],
      "stateMutability": "nonpayable",
      "type": "constructor"
    },
    {
      "inputs": [
        {
          "internalType": "address",
          "name": "sender",
          "type": "address"
        },
        {
          "internalType": "uint256",
          "name": "tokenId",
          "type": "uint256"
        },
        {
          "internalType": "address",
          "name": "owner",
          "type": "address"
        }
      ],
      "name": "ERC721IncorrectOwner",
      "type": "error"
    },
    {
      "inputs": [
        {
          "internalType": "address",
          "name": "operator",
          "type": "address"
        },
        {
          "internalType": "uint256",
          "name": "tokenId",
          "type": "uint256"
        }
      ],
      "name": "ERC721InsufficientApproval",
      "type": "error"
    },
    {
      "inputs": [
        {
          "internalType": "address",
          "name": "approver",
          "type": "address"
        }
      ],
      "name": "ERC721InvalidApprover",
      "type": "error"
    },
    {
      "inputs": [
        {
          "internalType": "address",
          "name": "operator",
          "type": "address"
        }
      ],
      "name": "ERC721InvalidOperator",
      "type": "error"
    },
    {
      "inputs": [
        {
          "internalType": "address",
          "name": "owner",
          "type": "address"
        }
      ],
      "name": "ERC721InvalidOwner",
      "type": "error"
    },
    {
      "inputs": [
        {
          "internalType": "address",
          "name": "receiver",
          "type": "address"
        }
      ],
      "name": "ERC721InvalidReceiver",
      "type": "error"
    },
    {
      "inputs": [
        {
          "internalType": "address",
          "name": "sender",
          "type": "address"
        }
      ],
      "name": "ERC721InvalidSender",
      "type": "error"
    },
    {
      "inputs": [
        {
          "internalType": "uint256",
          "name": "tokenId",
          "type": "uint256"
        }
      ],
      "name": "ERC721NonexistentToken",
      "type": "error"
    },
    {
      "anonymous": false,
      "inputs": [
        {
          "indexed": true,
          "internalType": "uint256",
          "name": "tokenId",
          "type": "uint256"
        },
        {
          "indexed": true,
          "internalType": "address",
          "name": "creator",
          "type": "address"
        },
        {
          "indexed": false,
          "internalType": "string",
          "name": "tokenURI",
          "type": "string"
        }
      ],
      "name": "AgentMinted",
      "type": "event"
    },
    {
      "anonymous": false,
      "inputs": [
        {
          "indexed": true,
          "internalType": "address",
          "name": "owner",
          "type": "address"
        },
        {
          "indexed": true,
          "internalType": "address",
          "name": "approved",
          "type": "address"
        },
        {
          "indexed": true,
          "internalType": "uint256",
          "name": "tokenId",
          "type": "uint256"
        }
      ],
      "name": "Approval",
      "type": "event"
    },
    {
      "anonymous": false,
      "inputs": [
        {
          "indexed": true,
          "internalType": "address",
          "name": "owner",
          "type": "address"
        },
        {
          "indexed": true,
          "internalType": "address",
          "name": "operator",
          "type": "address"
        },
        {
          "indexed": false,
          "internalType": "bool",
          "name": "approved",
          "type": "bool"
        }
      ],
      "name": "ApprovalForAll",
      "type": "event"
    },
    {
      "anonymous": false,
      "inputs": [
        {
          "indexed": false,
          "internalType": "uint256",
          "name": "_fromTokenId",
          "type": "uint256"
        },
        {
          "indexed": false,
          "internalType": "uint256",
          "name": "_toTokenId",
          "type": "uint256"
        }
      ],
      "name": "BatchMetadataUpdate",
      "type": "event"
    },
    {
      "anonymous": false,
      "inputs": [
        {
          "indexed": false,
          "internalType": "uint256",
          "name": "_tokenId",
          "type": "uint256"
        }
      ],
      "name": "MetadataUpdate",
      "type": "event"
    },
    {
      "anonymous": false,
      "inputs": [
        {
          "indexed": true,
          "internalType": "address",
          "name": "from",
          "type": "address"
        },
        {
          "indexed": true,
          "internalType": "address",
          "name": "to",
          "type": "address"
        },
        {
          "indexed": true,
          "internalType": "uint256",
          "name": "tokenId",
          "type": "uint256"
        }
      ],
      "name": "Transfer",
      "type": "event"
    },
    {
      "inputs": [
        {
          "internalType": "address",
          "name": "to",
          "type": "address"
        },
        {
          "internalType": "uint256",
          "name": "tokenId",
          "type": "uint256"
        }
      ],
      "name": "approve",
      "outputs": [],
      "stateMutability": "nonpayable",
      "type": "function"
    },
    {
      "inputs": [
        {
          "internalType": "address",
          "name": "owner",
          "type": "address"
        }
      ],
      "name": "balanceOf",
      "outputs": [
        {
          "internalType": "uint256",
          "name": "",
          "type": "uint256"
        }
      ],
      "stateMutability": "view",
      "type": "function"
    },
    {
      "inputs": [
        {
          "internalType": "uint256",
          "name": "tokenId",
          "type": "uint256"
        }
      ],
      "name": "getApproved",
      "outputs": [
        {
          "internalType": "address",
          "name": "",
          "type": "address"
        }
      ],
      "stateMutability": "view",
      "type": "function"
    },
    {
      "inputs": [
        {
          "internalType": "address",
          "name": "owner",
          "type": "address"
        },
        {
          "internalType": "address",
          "name": "operator",
          "type": "address"
        }
      ],
      "name": "isApprovedForAll",
      "outputs": [
        {
          "internalType": "bool",
          "name": "",
          "type": "bool"
        }
      ],
      "stateMutability": "view",
      "type": "function"
    },
    {
      "inputs": [
        {
          "internalType": "string",
          "name": "tokenURI",
          "type": "string"
        }
      ],
      "name": "mintAgent",
      "outputs": [
        {
          "internalType": "uint256",
          "name": "",
          "type": "uint256"
        }
      ],
      "stateMutability": "nonpayable",
      "type": "function"
    },
    {
      "inputs": [],
      "name": "name",
      "outputs": [
        {
          "internalType": "string",
          "name": "",
          "type": "string"
        }
      ],
      "stateMutability": "view",
      "type": "function"
    },
    {
      "inputs": [
        {
          "internalType": "uint256",
          "name": "tokenId",
          "type": "uint256"
        }
      ],
      "name": "ownerOf",
      "outputs": [
        {
          "internalType": "address",
          "name": "",
          "type": "address"
        }
      ],
      "stateMutability": "view",
      "type": "function"
    },
    {
      "inputs": [
        {
          "internalType": "address",
          "name": "from",
          "type": "address"
        },
        {
          "internalType": "address",
          "name": "to",
          "type": "address"
        },
        {
          "internalType": "uint256",
          "name": "tokenId",
          "type": "uint256"
        }
      ],
      "name": "safeTransferFrom",
      "outputs": [],
      "stateMutability": "nonpayable",
      "type": "function"
    },
    {
      "inputs": [
        {
          "internalType": "address",
          "name": "from",
          "type": "address"
        },
        {
          "internalType": "address",
          "name": "to",
          "type": "address"
        },
        {
          "internalType": "uint256",
          "name": "tokenId",
          "type": "uint256"
        },
        {
          "internalType": "bytes",
          "name": "data",
          "type": "bytes"
        }
      ],
      "name": "safeTransferFrom",
      "outputs": [],
      "stateMutability": "nonpayable",
      "type": "function"
    },
    {
      "inputs": [
        {
          "internalType": "address",
          "name": "operator",
          "type": "address"
        },
        {
          "internalType": "bool",
          "name": "approved",
          "type": "bool"
        }
      ],
      "name": "setApprovalForAll",
      "outputs": [],
      "stateMutability": "nonpayable",
      "type": "function"
    },
    {
      "inputs": [
        {
          "internalType": "bytes4",
          "name": "interfaceId",
          "type": "bytes4"
        }
      ],
      "name": "supportsInterface",
      "outputs": [
        {
          "internalType": "bool",
          "name": "",
          "type": "bool"
        }
      ],
      "stateMutability": "view",
      "type": "function"
    },
    {
      "inputs": [],
      "name": "symbol",
      "outputs": [
        {
          "internalType": "string",
          "name": "",
          "type": "string"
        }
      ],
      "stateMutability": "view",
      "type": "function"
    },
    {
      "inputs": [
        {
          "internalType": "uint256",
          "name": "tokenId",
          "type": "uint256"
        }
      ],
      "name": "tokenURI",
      "outputs": [
        {
          "internalType": "string",
          "name": "",
          "type": "string"
        }
      ],
      "stateMutability": "view",
      "type": "function"
    },
    {
      "inputs": [
        {
          "internalType": "address",
          "name": "from",
          "type": "address"
        },
        {
          "internalType": "address",
          "name": "to",
          "type": "address"
        },
        {
          "internalType": "uint256",
          "name": "tokenId",
          "type": "uint256"
        }
      ],
      "name": "transferFrom",
      "outputs": [],
      "stateMutability": "nonpayable",
      "type": "function"
    }
  ],
  "bytecode": "0x60806040523480156200001157600080fd5b506040518060400160405280600b81526020016a105959da5cc81059d95b9d60aa1b81525060405180604001604052806005815260200164414547495360d81b815250816000908162000065919062000122565b50600162000074828262000122565b505050620001ee565b634e487b7160e01b600052604160045260246000fd5b600181811c90821680620000a857607f821691505b602082108103620000c957634e487b7160e01b600052602260045260246000fd5b50919050565b601f8211156200011d57600081815260208120601f850160051c81016020861015620000f85750805b601f850160051c820191505b81811015620001195782815560010162000104565b5050505b505050565b81516001600160401b038111156200013e576200013e6200007d565b62000156816200014f845462000093565b84620000cf565b602080601f8311600181146200018e5760008415620001755750858301515b600019600386901b1c1916600185901b17855562000119565b600085815260208120601f198616915b82811015620001bf578886015182559484019460019091019084016200019e565b5085821015620001de5787850151600019600388901b60f8161c191681555b5050505050600190811b01905550565b61132f80620001fe6000396000f3fe608060405234801561001057600080fd5b50600436106100ea5760003560e01c806370a082311161008c578063b88d4fde11610066578063b88d4fde146101e1578063c87b56dd146101f4578063dab74dce14610207578063e985e9c51461021a57600080fd5b806370a08231146101a557806395d89b41146101c6578063a22cb465146101ce57600080fd5b8063095ea7b3116100c8578063095ea7b31461015757806323b872dd1461016c57806342842e0e1461017f5780636352211e1461019257600080fd5b806301ffc9a7146100ef57806306fdde0314610117578063081812fc1461012c575b600080fd5b6101026100fd366004610e13565b61022d565b60405190151581526020015b60405180910390f35b61011f610258565b60405161010e9190610e80565b61013f61013a366004610e93565b6102ea565b6040516001600160a01b03909116815260200161010e565b61016a610165366004610ec8565b610313565b005b61016a61017a366004610ef2565b610322565b61016a61018d366004610ef2565b6103b2565b61013f6101a0366004610e93565b6103d2565b6101b86101b3366004610f2e565b6103dd565b60405190815260200161010e565b61011f610425565b61016a6101dc366004610f49565b610434565b61016a6101ef366004611011565b61043f565b61011f610202366004610e93565b610457565b6101b861021536600461108d565b610568565b6101026102283660046110d6565b6105df565b60006001600160e01b03198216632483248360e11b148061025257506102528261060d565b92915050565b60606000805461026790611109565b80601f016020809104026020016040519081016040528092919081815260200182805461029390611109565b80156102e05780601f106102b5576101008083540402835291602001916102e0565b820191906000526020600020905b8154815290600101906020018083116102c357829003601f168201915b5050505050905090565b60006102f58261065d565b506000828152600460205260409020546001600160a01b0316610252565b61031e828233610696565b5050565b6001600160a01b03821661035157604051633250574960e11b8152600060048201526024015b60405180910390fd5b600061035e8383336106a3565b9050836001600160a01b0316816001600160a01b0316146103ac576040516364283d7b60e01b81526001600160a01b0380861660048301526024820184905282166044820152606401610348565b50505050565b6103cd8383836040518060200160405280600081525061043f565b505050565b60006102528261065d565b60006001600160a01b038216610409576040516322718ad960e21b815260006004820152602401610348565b506001600160a01b031660009081526003602052604090205490565b60606001805461026790611109565b61031e33838361079c565b61044a848484610322565b6103ac338585858561083b565b60606104628261065d565b506000828152600660205260408120805461047c90611109565b80601f01602080910402602001604051908101604052809291908181526020018280546104a890611109565b80156104f55780601f106104ca576101008083540402835291602001916104f5565b820191906000526020600020905b8154815290600101906020018083116104d857829003601f168201915b50505050509050600061051360408051602081019091526000815290565b90508051600003610525575092915050565b81511561055757808260405160200161053f929190611143565b60405160208183030381529060405292505050919050565b61056084610966565b949350505050565b6007805460009181908361057b83611172565b9091555033905061058c81836109db565b61059682856109f5565b806001600160a01b0316827f4163bfac127160e0f9f156ad45f09360dfe365c4fcdf394c40bdfece890ee6f7866040516105d09190610e80565b60405180910390a35092915050565b6001600160a01b03918216600090815260056020908152604080832093909416825291909152205460ff1690565b60006001600160e01b031982166380ac58cd60e01b148061063e57506001600160e01b03198216635b5e139f60e01b145b8061025257506301ffc9a760e01b6001600160e01b0319831614610252565b6000818152600260205260408120546001600160a01b03168061025257604051637e27328960e01b815260048101849052602401610348565b6103cd8383836001610a45565b6000828152600260205260408120546001600160a01b03908116908316156106d0576106d0818486610b4b565b6001600160a01b0381161561070e576106ed600085600080610a45565b6001600160a01b038116600090815260036020526040902080546000190190555b6001600160a01b0385161561073d576001600160a01b0385166000908152600360205260409020805460010190555b60008481526002602052604080822080546001600160a01b0319166001600160a01b0389811691821790925591518793918516917fddf252ad1be2c89b69c2b068fc378daa952ba7f163c4a11628f55a4df523b3ef91a4949350505050565b6001600160a01b0382166107ce57604051630b61174360e31b81526001600160a01b0383166004820152602401610348565b6001600160a01b03838116600081815260056020908152604080832094871680845294825291829020805460ff191686151590811790915591519182527f17307eab39ab6107e8899845ad3d59bd9653f200f220920489ca2b5937696c31910160405180910390a3505050565b6001600160a01b0383163b1561095f57604051630a85bd0160e11b81526001600160a01b0384169063150b7a029061087d908890889087908790600401611199565b6020604051808303816000875af19250505080156108b8575060408051601f3d908101601f191682019092526108b5918101906111d6565b60015b610921573d8080156108e6576040519150601f19603f3d011682016040523d82523d6000602084013e6108eb565b606091505b50805160000361091957604051633250574960e11b81526001600160a01b0385166004820152602401610348565b805160208201fd5b6001600160e01b03198116630a85bd0160e11b1461095d57604051633250574960e11b81526001600160a01b0385166004820152602401610348565b505b5050505050565b60606109718261065d565b50600061098960408051602081019091526000815290565b905060008151116109a957604051806020016040528060008152506109d4565b806109b384610baf565b6040516020016109c4929190611143565b6040516020818303038152906040525b9392505050565b61031e828260405180602001604052806000815250610c42565b6000828152600660205260409020610a0d8282611239565b506040518281527ff8e1a15aba9398e019f0b49df1a4fde98ee17ae345cb5f6b5e2c27f5033e8ce79060200160405180910390a15050565b8080610a5957506001600160a01b03821615155b15610b1b576000610a698461065d565b90506001600160a01b03831615801590610a955750826001600160a01b0316816001600160a01b031614155b8015610aa85750610aa681846105df565b155b15610ad15760405163a9fbf51f60e01b81526001600160a01b0384166004820152602401610348565b8115610b195783856001600160a01b0316826001600160a01b03167f8c5be1e5ebec7d5bd14f71427d1e84f3dd0314c0f7b2291e5b200ac8c7c3b92560405160405180910390a45b505b5050600090815260046020526040902080546001600160a01b0319166001600160a01b0392909216919091179055565b610b56838383610c5a565b6103cd576001600160a01b038316610b8457604051637e27328960e01b815260048101829052602401610348565b60405163177e802f60e01b81526001600160a01b038316600482015260248101829052604401610348565b60606000610bbc83610cbd565b600101905060008167ffffffffffffffff811115610bdc57610bdc610f85565b6040519080825280601f01601f191660200182016040528015610c06576020820181803683370190505b5090508181016020015b600019016f181899199a1a9b1b9c1cb0b131b232b360811b600a86061a8153600a8504945084610c1057509392505050565b610c4c8383610d95565b6103cd33600085858561083b565b60006001600160a01b038316158015906105605750826001600160a01b0316846001600160a01b03161480610c945750610c9484846105df565b806105605750506000908152600460205260409020546001600160a01b03908116911614919050565b60008072184f03e93ff9f4daa797ed6e38ed64bf6a1f0160401b8310610cfc5772184f03e93ff9f4daa797ed6e38ed64bf6a1f0160401b830492506040015b6d04ee2d6d415b85acef81000000008310610d28576d04ee2d6d415b85acef8100000000830492506020015b662386f26fc100008310610d4657662386f26fc10000830492506010015b6305f5e1008310610d5e576305f5e100830492506008015b6127108310610d7257612710830492506004015b60648310610d84576064830492506002015b600a83106102525760010192915050565b6001600160a01b038216610dbf57604051633250574960e11b815260006004820152602401610348565b6000610dcd838360006106a3565b90506001600160a01b038116156103cd576040516339e3563760e11b815260006004820152602401610348565b6001600160e01b031981168114610e1057600080fd5b50565b600060208284031215610e2557600080fd5b81356109d481610dfa565b60005b83811015610e4b578181015183820152602001610e33565b50506000910152565b60008151808452610e6c816020860160208601610e30565b601f01601f19169290920160200192915050565b6020815260006109d46020830184610e54565b600060208284031215610ea557600080fd5b5035919050565b80356001600160a01b0381168114610ec357600080fd5b919050565b60008060408385031215610edb57600080fd5b610ee483610eac565b946020939093013593505050565b600080600060608486031215610f0757600080fd5b610f1084610eac565b9250610f1e60208501610eac565b9150604084013590509250925092565b600060208284031215610f4057600080fd5b6109d482610eac565b60008060408385031215610f5c57600080fd5b610f6583610eac565b915060208301358015158114610f7a57600080fd5b809150509250929050565b634e487b7160e01b600052604160045260246000fd5b600067ffffffffffffffff80841115610fb657610fb6610f85565b604051601f8501601f19908116603f01168101908282118183101715610fde57610fde610f85565b81604052809350858152868686011115610ff757600080fd5b858560208301376000602087830101525050509392505050565b6000806000806080858703121561102757600080fd5b61103085610eac565b935061103e60208601610eac565b925060408501359150606085013567ffffffffffffffff81111561106157600080fd5b8501601f8101871361107257600080fd5b61108187823560208401610f9b565b91505092959194509250565b60006020828403121561109f57600080fd5b813567ffffffffffffffff8111156110b657600080fd5b8201601f810184136110c757600080fd5b61056084823560208401610f9b565b600080604083850312156110e957600080fd5b6110f283610eac565b915061110060208401610eac565b90509250929050565b600181811c9082168061111d57607f821691505b60208210810361113d57634e487b7160e01b600052602260045260246000fd5b50919050565b60008351611155818460208801610e30565b835190830190611169818360208801610e30565b01949350505050565b60006001820161119257634e487b7160e01b600052601160045260246000fd5b5060010190565b6001600160a01b03858116825284166020820152604081018390526080606082018190526000906111cc90830184610e54565b9695505050505050565b6000602082840312156111e857600080fd5b81516109d481610dfa565b601f8211156103cd57600081815260208120601f850160051c8101602086101561121a5750805b601f850160051c820191505b8181101561095d57828155600101611226565b815167ffffffffffffffff81111561125357611253610f85565b611267816112618454611109565b846111f3565b602080601f83116001811461129c57600084156112845750858301515b600019600386901b1c1916600185901b17855561095d565b600085815260208120601f198616915b828110156112cb578886015182559484019460019091019084016112ac565b50858210156112e95787850151600019600388901b60f8161c191681555b5050505050600190811b0190555056fea2646970667358221220ed6d47e2322dd2c1d23349295ab339daa46d1b1488da2fe17f3cbd634336b2a064736f6c63430008140033",
  "linkReferences": {},
  "deployedLinkReferences": {}
}